{
  "contractName": "ZombieHelper",
  "abi": [
    {
      "anonymous": false,
      "inputs": [
        {
          "indexed": false,
          "internalType": "uint256",
          "name": "zombieId",
          "type": "uint256"
        },
        {
          "indexed": false,
          "internalType": "string",
          "name": "name",
          "type": "string"
        },
        {
          "indexed": false,
          "internalType": "uint256",
          "name": "dna",
          "type": "uint256"
        }
      ],
      "name": "NewZombie",
      "type": "event"
    },
    {
      "anonymous": false,
      "inputs": [
        {
          "indexed": true,
          "internalType": "address",
          "name": "previousOwner",
          "type": "address"
        },
        {
          "indexed": true,
          "internalType": "address",
          "name": "newOwner",
          "type": "address"
        }
      ],
      "name": "OwnershipTransferred",
      "type": "event"
    },
    {
      "inputs": [
        {
          "internalType": "string",
          "name": "_name",
          "type": "string"
        }
      ],
      "name": "createRandomZombie",
      "outputs": [],
      "stateMutability": "nonpayable",
      "type": "function"
    },
    {
      "inputs": [
        {
          "internalType": "uint256",
          "name": "_zombieId",
          "type": "uint256"
        },
        {
          "internalType": "uint256",
          "name": "_kittyId",
          "type": "uint256"
        }
      ],
      "name": "feedOnKitty",
      "outputs": [],
      "stateMutability": "nonpayable",
      "type": "function"
    },
    {
      "inputs": [],
      "name": "isOwner",
      "outputs": [
        {
          "internalType": "bool",
          "name": "",
          "type": "bool"
        }
      ],
      "stateMutability": "view",
      "type": "function"
    },
    {
      "inputs": [],
      "name": "owner",
      "outputs": [
        {
          "internalType": "address",
          "name": "",
          "type": "address"
        }
      ],
      "stateMutability": "view",
      "type": "function"
    },
    {
      "inputs": [],
      "name": "renounceOwnership",
      "outputs": [],
      "stateMutability": "nonpayable",
      "type": "function"
    },
    {
      "inputs": [
        {
          "internalType": "address",
          "name": "_address",
          "type": "address"
        }
      ],
      "name": "setKittyContractAddress",
      "outputs": [],
      "stateMutability": "nonpayable",
      "type": "function"
    },
    {
      "inputs": [
        {
          "internalType": "address",
          "name": "newOwner",
          "type": "address"
        }
      ],
      "name": "transferOwnership",
      "outputs": [],
      "stateMutability": "nonpayable",
      "type": "function"
    },
    {
      "inputs": [
        {
          "internalType": "uint256",
          "name": "",
          "type": "uint256"
        }
      ],
      "name": "zombieToOwner",
      "outputs": [
        {
          "internalType": "address",
          "name": "",
          "type": "address"
        }
      ],
      "stateMutability": "view",
      "type": "function"
    },
    {
      "inputs": [
        {
          "internalType": "uint256",
          "name": "",
          "type": "uint256"
        }
      ],
      "name": "zombies",
      "outputs": [
        {
          "internalType": "string",
          "name": "name",
          "type": "string"
        },
        {
          "internalType": "uint256",
          "name": "dna",
          "type": "uint256"
        },
        {
          "internalType": "uint32",
          "name": "level",
          "type": "uint32"
        },
        {
          "internalType": "uint32",
          "name": "readyTime",
          "type": "uint32"
        },
        {
          "internalType": "uint16",
          "name": "winCount",
          "type": "uint16"
        },
        {
          "internalType": "uint16",
          "name": "lossCount",
          "type": "uint16"
        }
      ],
      "stateMutability": "view",
      "type": "function"
    },
    {
      "inputs": [],
      "name": "withdraw",
      "outputs": [],
      "stateMutability": "nonpayable",
      "type": "function"
    },
    {
      "inputs": [
        {
          "internalType": "uint256",
          "name": "_fee",
          "type": "uint256"
        }
      ],
      "name": "setLevelUpFee",
      "outputs": [],
      "stateMutability": "nonpayable",
      "type": "function"
    },
    {
      "inputs": [
        {
          "internalType": "uint256",
          "name": "_zombieId",
          "type": "uint256"
        }
      ],
      "name": "levelUp",
      "outputs": [],
      "stateMutability": "payable",
      "type": "function"
    },
    {
      "inputs": [
        {
          "internalType": "uint256",
          "name": "_zombieId",
          "type": "uint256"
        },
        {
          "internalType": "string",
          "name": "_newName",
          "type": "string"
        }
      ],
      "name": "changeName",
      "outputs": [],
      "stateMutability": "nonpayable",
      "type": "function"
    },
    {
      "inputs": [
        {
          "internalType": "uint256",
          "name": "_zombieId",
          "type": "uint256"
        },
        {
          "internalType": "uint256",
          "name": "_newDna",
          "type": "uint256"
        }
      ],
      "name": "changeDna",
      "outputs": [],
      "stateMutability": "nonpayable",
      "type": "function"
    },
    {
      "inputs": [
        {
          "internalType": "address",
          "name": "_owner",
          "type": "address"
        }
      ],
      "name": "getZombiesByOwner",
      "outputs": [
        {
          "internalType": "uint256[]",
          "name": "",
          "type": "uint256[]"
        }
      ],
      "stateMutability": "view",
      "type": "function"
    }
  ],
  "bytecode": "0x60806040526010600155600154600a6200001a91906200028b565b6002556201518060035566038d7ea4c680006008553480156200003c57600080fd5b50336000806101000a81548173ffffffffffffffffffffffffffffffffffffffff021916908373ffffffffffffffffffffffffffffffffffffffff16021790555060008054906101000a900473ffffffffffffffffffffffffffffffffffffffff1673ffffffffffffffffffffffffffffffffffffffff16600073ffffffffffffffffffffffffffffffffffffffff167f8be0079c531659141344cd1fd0a4f28419497f9722a3daafe3b4186f6b6457e060405160405180910390a3620002dc565b7f4e487b7100000000000000000000000000000000000000000000000000000000600052601160045260246000fd5b60008160011c9050919050565b6000808291508390505b60018511156200018c57808604811115620001645762000163620000fe565b5b6001851615620001745780820291505b808102905062000184856200012d565b945062000144565b94509492505050565b600082620001a757600190506200027a565b81620001b757600090506200027a565b8160018114620001d05760028114620001db5762000211565b60019150506200027a565b60ff841115620001f057620001ef620000fe565b5b8360020a9150848211156200020a5762000209620000fe565b5b506200027a565b5060208310610133831016604e8410600b84101617156200024b5782820a905083811115620002455762000244620000fe565b5b6200027a565b6200025a84848460016200013a565b92509050818404811115620002745762000273620000fe565b5b81810290505b9392505050565b6000819050919050565b6000620002988262000281565b9150620002a58362000281565b9250620002d47fffffffffffffffffffffffffffffffffffffffffffffffffffffffffffffffff848462000195565b905092915050565b611f7a80620002ec6000396000f3fe6080604052600436106100e85760003560e01c80635faf28801161008a5780638f32d59b116100595780638f32d59b146102c2578063c39cbef1146102ed578063ccf670f814610316578063f2fde38b1461033f576100e8565b80635faf28801461022e578063715018a6146102575780637bff0a011461026e5780638da5cb5b14610297576100e8565b80633ccfd60b116100c65780633ccfd60b146101745780634412e1041461018b578063528b7b8f146101c85780635f4623f114610205576100e8565b80630ce90ec2146100ed57806317a7f4cc146101095780632052465e14610132575b600080fd5b610107600480360381019061010291906111da565b610368565b005b34801561011557600080fd5b50610130600480360381019061012b9190611207565b6103dd565b005b34801561013e57600080fd5b50610159600480360381019061015491906111da565b6104fb565b60405161016b96959493929190611322565b60405180910390f35b34801561018057600080fd5b5061018961060b565b005b34801561019757600080fd5b506101b260048036038101906101ad91906113e8565b610672565b6040516101bf91906114d3565b60405180910390f35b3480156101d457600080fd5b506101ef60048036038101906101ea91906111da565b6107c4565b6040516101fc9190611504565b60405180910390f35b34801561021157600080fd5b5061022c600480360381019061022791906113e8565b6107f7565b005b34801561023a57600080fd5b5061025560048036038101906102509190611207565b61084c565b005b34801561026357600080fd5b5061026c610934565b005b34801561027a57600080fd5b5061029560048036038101906102909190611654565b610a03565b005b3480156102a357600080fd5b506102ac610a84565b6040516102b99190611504565b60405180910390f35b3480156102ce57600080fd5b506102d7610aad565b6040516102e491906116b8565b60405180910390f35b3480156102f957600080fd5b50610314600480360381019061030f9190611733565b610b04565b005b34801561032257600080fd5b5061033d600480360381019061033891906111da565b610bf8565b005b34801561034b57600080fd5b50610366600480360381019061036191906113e8565b610c13565b005b600854341461037657600080fd5b6004818154811061038a57610389611793565b5b9060005260206000209060030201600201600081819054906101000a900463ffffffff16809291906103bb906117f1565b91906101000a81548163ffffffff021916908363ffffffff1602179055505050565b6000600760009054906101000a900473ffffffffffffffffffffffffffffffffffffffff1673ffffffffffffffffffffffffffffffffffffffff1663e98b7f4d836040518263ffffffff1660e01b815260040161043a919061181d565b61014060405180830381865afa158015610458573d6000803e3d6000fd5b505050506040513d601f19601f8201168201806040525081019061047c9190611879565b909192939495969798509091929394959697509091929394959650909192939495509091929394509091929350909192509091509050809150506104f683826040518060400160405280600581526020017f6b69747479000000000000000000000000000000000000000000000000000000815250610c30565b505050565b6004818154811061050b57600080fd5b906000526020600020906003020160009150905080600001805461052e90611987565b80601f016020809104026020016040519081016040528092919081815260200182805461055a90611987565b80156105a75780601f1061057c576101008083540402835291602001916105a7565b820191906000526020600020905b81548152906001019060200180831161058a57829003601f168201915b5050505050908060010154908060020160009054906101000a900463ffffffff16908060020160049054906101000a900463ffffffff16908060020160089054906101000a900461ffff169080600201600a9054906101000a900461ffff16905086565b610613610aad565b61061c57600080fd5b6000610626610a84565b90508073ffffffffffffffffffffffffffffffffffffffff166108fc479081150290604051600060405180830381858888f1935050505015801561066e573d6000803e3d6000fd5b5050565b60606000600660008473ffffffffffffffffffffffffffffffffffffffff1673ffffffffffffffffffffffffffffffffffffffff1681526020019081526020016000205467ffffffffffffffff8111156106cf576106ce611529565b5b6040519080825280602002602001820160405280156106fd5781602001602082028036833780820191505090505b5090506000805b6004805490508110156107b9578473ffffffffffffffffffffffffffffffffffffffff166005600083815260200190815260200160002060009054906101000a900473ffffffffffffffffffffffffffffffffffffffff1673ffffffffffffffffffffffffffffffffffffffff16036107a6578083838151811061078b5761078a611793565b5b60200260200101818152505081806107a2906119b8565b9250505b80806107b1906119b8565b915050610704565b508192505050919050565b60056020528060005260406000206000915054906101000a900473ffffffffffffffffffffffffffffffffffffffff1681565b6107ff610aad565b61080857600080fd5b80600760006101000a81548173ffffffffffffffffffffffffffffffffffffffff021916908373ffffffffffffffffffffffffffffffffffffffff16021790555050565b601482816004828154811061086457610863611793565b5b906000526020600020906003020160020160009054906101000a900463ffffffff1663ffffffff16101561089757600080fd5b836005600082815260200190815260200160002060009054906101000a900473ffffffffffffffffffffffffffffffffffffffff1673ffffffffffffffffffffffffffffffffffffffff163373ffffffffffffffffffffffffffffffffffffffff161461090357600080fd5b836004868154811061091857610917611793565b5b9060005260206000209060030201600101819055505050505050565b61093c610aad565b61094557600080fd5b600073ffffffffffffffffffffffffffffffffffffffff1660008054906101000a900473ffffffffffffffffffffffffffffffffffffffff1673ffffffffffffffffffffffffffffffffffffffff167f8be0079c531659141344cd1fd0a4f28419497f9722a3daafe3b4186f6b6457e060405160405180910390a360008060006101000a81548173ffffffffffffffffffffffffffffffffffffffff021916908373ffffffffffffffffffffffffffffffffffffffff160217905550565b6000600660003373ffffffffffffffffffffffffffffffffffffffff1673ffffffffffffffffffffffffffffffffffffffff1681526020019081526020016000205414610a4f57600080fd5b6000610a5a82610dcc565b9050606481610a699190611a2f565b81610a749190611a60565b9050610a808282610e11565b5050565b60008060009054906101000a900473ffffffffffffffffffffffffffffffffffffffff16905090565b60008060009054906101000a900473ffffffffffffffffffffffffffffffffffffffff1673ffffffffffffffffffffffffffffffffffffffff163373ffffffffffffffffffffffffffffffffffffffff1614905090565b6002838160048281548110610b1c57610b1b611793565b5b906000526020600020906003020160020160009054906101000a900463ffffffff1663ffffffff161015610b4f57600080fd5b846005600082815260200190815260200160002060009054906101000a900473ffffffffffffffffffffffffffffffffffffffff1673ffffffffffffffffffffffffffffffffffffffff163373ffffffffffffffffffffffffffffffffffffffff1614610bbb57600080fd5b848460048881548110610bd157610bd0611793565b5b90600052602060002090600302016000019182610bef929190611c4b565b50505050505050565b610c00610aad565b610c0957600080fd5b8060088190555050565b610c1b610aad565b610c2457600080fd5b610c2d81611040565b50565b826005600082815260200190815260200160002060009054906101000a900473ffffffffffffffffffffffffffffffffffffffff1673ffffffffffffffffffffffffffffffffffffffff163373ffffffffffffffffffffffffffffffffffffffff1614610c9c57600080fd5b600060048581548110610cb257610cb1611793565b5b90600052602060002090600302019050610ccb81611136565b610cd457600080fd5b60025484610ce29190611a2f565b935060006002858360010154610cf89190611d1b565b610d029190611d4f565b9050604051602001610d1390611dd7565b6040516020818303038152906040528051906020012084604051602001610d3a9190611e1d565b6040516020818303038152906040528051906020012003610d7c576063606482610d649190611a2f565b82610d6f9190611a60565b610d799190611d1b565b90505b610dbb6040518060400160405280600681526020017f4e6f4e616d65000000000000000000000000000000000000000000000000000081525082610e11565b610dc48261115d565b505050505050565b60008082604051602001610de09190611e1d565b6040516020818303038152906040528051906020012060001c905060025481610e099190611a2f565b915050919050565b60046040518060c00160405280848152602001838152602001600163ffffffff16815260200160035442610e459190611d1b565b63ffffffff168152602001600061ffff168152602001600061ffff1681525090806001815401808255809150506001900390600052602060002090600302016000909190919091506000820151816000019081610ea29190611e34565b506020820151816001015560408201518160020160006101000a81548163ffffffff021916908363ffffffff16021790555060608201518160020160046101000a81548163ffffffff021916908363ffffffff16021790555060808201518160020160086101000a81548161ffff021916908361ffff16021790555060a082015181600201600a6101000a81548161ffff021916908361ffff160217905550505060006001600480549050610f579190611a60565b9050336005600083815260200190815260200160002060006101000a81548173ffffffffffffffffffffffffffffffffffffffff021916908373ffffffffffffffffffffffffffffffffffffffff160217905550600660003373ffffffffffffffffffffffffffffffffffffffff1673ffffffffffffffffffffffffffffffffffffffff1681526020019081526020016000206000815480929190610ffb906119b8565b91905055507f88f026aacbbecc90c18411df4b1185fd8d9be2470f1962f192bf84a27d0704b781848460405161103393929190611f06565b60405180910390a1505050565b600073ffffffffffffffffffffffffffffffffffffffff168173ffffffffffffffffffffffffffffffffffffffff160361107957600080fd5b8073ffffffffffffffffffffffffffffffffffffffff1660008054906101000a900473ffffffffffffffffffffffffffffffffffffffff1673ffffffffffffffffffffffffffffffffffffffff167f8be0079c531659141344cd1fd0a4f28419497f9722a3daafe3b4186f6b6457e060405160405180910390a3806000806101000a81548173ffffffffffffffffffffffffffffffffffffffff021916908373ffffffffffffffffffffffffffffffffffffffff16021790555050565b6000428260020160049054906101000a900463ffffffff1663ffffffff1611159050919050565b6003544261116b9190611d1b565b8160020160046101000a81548163ffffffff021916908363ffffffff16021790555050565b6000604051905090565b600080fd5b600080fd5b6000819050919050565b6111b7816111a4565b81146111c257600080fd5b50565b6000813590506111d4816111ae565b92915050565b6000602082840312156111f0576111ef61119a565b5b60006111fe848285016111c5565b91505092915050565b6000806040838503121561121e5761121d61119a565b5b600061122c858286016111c5565b925050602061123d858286016111c5565b9150509250929050565b600081519050919050565b600082825260208201905092915050565b60005b83811015611281578082015181840152602081019050611266565b60008484015250505050565b6000601f19601f8301169050919050565b60006112a982611247565b6112b38185611252565b93506112c3818560208601611263565b6112cc8161128d565b840191505092915050565b6112e0816111a4565b82525050565b600063ffffffff82169050919050565b6112ff816112e6565b82525050565b600061ffff82169050919050565b61131c81611305565b82525050565b600060c082019050818103600083015261133c818961129e565b905061134b60208301886112d7565b61135860408301876112f6565b61136560608301866112f6565b6113726080830185611313565b61137f60a0830184611313565b979650505050505050565b600073ffffffffffffffffffffffffffffffffffffffff82169050919050565b60006113b58261138a565b9050919050565b6113c5816113aa565b81146113d057600080fd5b50565b6000813590506113e2816113bc565b92915050565b6000602082840312156113fe576113fd61119a565b5b600061140c848285016113d3565b91505092915050565b600081519050919050565b600082825260208201905092915050565b6000819050602082019050919050565b61144a816111a4565b82525050565b600061145c8383611441565b60208301905092915050565b6000602082019050919050565b600061148082611415565b61148a8185611420565b935061149583611431565b8060005b838110156114c65781516114ad8882611450565b97506114b883611468565b925050600181019050611499565b5085935050505092915050565b600060208201905081810360008301526114ed8184611475565b905092915050565b6114fe816113aa565b82525050565b600060208201905061151960008301846114f5565b92915050565b600080fd5b600080fd5b7f4e487b7100000000000000000000000000000000000000000000000000000000600052604160045260246000fd5b6115618261128d565b810181811067ffffffffffffffff821117156115805761157f611529565b5b80604052505050565b6000611593611190565b905061159f8282611558565b919050565b600067ffffffffffffffff8211156115bf576115be611529565b5b6115c88261128d565b9050602081019050919050565b82818337600083830152505050565b60006115f76115f2846115a4565b611589565b90508281526020810184848401111561161357611612611524565b5b61161e8482856115d5565b509392505050565b600082601f83011261163b5761163a61151f565b5b813561164b8482602086016115e4565b91505092915050565b60006020828403121561166a5761166961119a565b5b600082013567ffffffffffffffff8111156116885761168761119f565b5b61169484828501611626565b91505092915050565b60008115159050919050565b6116b28161169d565b82525050565b60006020820190506116cd60008301846116a9565b92915050565b600080fd5b600080fd5b60008083601f8401126116f3576116f261151f565b5b8235905067ffffffffffffffff8111156117105761170f6116d3565b5b60208301915083600182028301111561172c5761172b6116d8565b5b9250929050565b60008060006040848603121561174c5761174b61119a565b5b600061175a868287016111c5565b935050602084013567ffffffffffffffff81111561177b5761177a61119f565b5b611787868287016116dd565b92509250509250925092565b7f4e487b7100000000000000000000000000000000000000000000000000000000600052603260045260246000fd5b7f4e487b7100000000000000000000000000000000000000000000000000000000600052601160045260246000fd5b60006117fc826112e6565b915063ffffffff8203611812576118116117c2565b5b600182019050919050565b600060208201905061183260008301846112d7565b92915050565b6118418161169d565b811461184c57600080fd5b50565b60008151905061185e81611838565b92915050565b600081519050611873816111ae565b92915050565b6000806000806000806000806000806101408b8d03121561189d5761189c61119a565b5b60006118ab8d828e0161184f565b9a505060206118bc8d828e0161184f565b99505060406118cd8d828e01611864565b98505060606118de8d828e01611864565b97505060806118ef8d828e01611864565b96505060a06119008d828e01611864565b95505060c06119118d828e01611864565b94505060e06119228d828e01611864565b9350506101006119348d828e01611864565b9250506101206119468d828e01611864565b9150509295989b9194979a5092959850565b7f4e487b7100000000000000000000000000000000000000000000000000000000600052602260045260246000fd5b6000600282049050600182168061199f57607f821691505b6020821081036119b2576119b1611958565b5b50919050565b60006119c3826111a4565b91507fffffffffffffffffffffffffffffffffffffffffffffffffffffffffffffffff82036119f5576119f46117c2565b5b600182019050919050565b7f4e487b7100000000000000000000000000000000000000000000000000000000600052601260045260246000fd5b6000611a3a826111a4565b9150611a45836111a4565b925082611a5557611a54611a00565b5b828206905092915050565b6000611a6b826111a4565b9150611a76836111a4565b9250828203905081811115611a8e57611a8d6117c2565b5b92915050565b600082905092915050565b60008190508160005260206000209050919050565b60006020601f8301049050919050565b600082821b905092915050565b600060088302611b017fffffffffffffffffffffffffffffffffffffffffffffffffffffffffffffffff82611ac4565b611b0b8683611ac4565b95508019841693508086168417925050509392505050565b6000819050919050565b6000611b48611b43611b3e846111a4565b611b23565b6111a4565b9050919050565b6000819050919050565b611b6283611b2d565b611b76611b6e82611b4f565b848454611ad1565b825550505050565b600090565b611b8b611b7e565b611b96818484611b59565b505050565b5b81811015611bba57611baf600082611b83565b600181019050611b9c565b5050565b601f821115611bff57611bd081611a9f565b611bd984611ab4565b81016020851015611be8578190505b611bfc611bf485611ab4565b830182611b9b565b50505b505050565b600082821c905092915050565b6000611c2260001984600802611c04565b1980831691505092915050565b6000611c3b8383611c11565b9150826002028217905092915050565b611c558383611a94565b67ffffffffffffffff811115611c6e57611c6d611529565b5b611c788254611987565b611c83828285611bbe565b6000601f831160018114611cb25760008415611ca0578287013590505b611caa8582611c2f565b865550611d12565b601f198416611cc086611a9f565b60005b82811015611ce857848901358255600182019150602085019450602081019050611cc3565b86831015611d055784890135611d01601f891682611c11565b8355505b6001600288020188555050505b50505050505050565b6000611d26826111a4565b9150611d31836111a4565b9250828201905080821115611d4957611d486117c2565b5b92915050565b6000611d5a826111a4565b9150611d65836111a4565b925082611d7557611d74611a00565b5b828204905092915050565b600081905092915050565b7f6b69747479000000000000000000000000000000000000000000000000000000600082015250565b6000611dc1600583611d80565b9150611dcc82611d8b565b600582019050919050565b6000611de282611db4565b9150819050919050565b6000611df782611247565b611e018185611d80565b9350611e11818560208601611263565b80840191505092915050565b6000611e298284611dec565b915081905092915050565b611e3d82611247565b67ffffffffffffffff811115611e5657611e55611529565b5b611e608254611987565b611e6b828285611bbe565b600060209050601f831160018114611e9e5760008415611e8c578287015190505b611e968582611c2f565b865550611efe565b601f198416611eac86611a9f565b60005b82811015611ed457848901518255600182019150602085019450602081019050611eaf565b86831015611ef15784890151611eed601f891682611c11565b8355505b6001600288020188555050505b505050505050565b6000606082019050611f1b60008301866112d7565b8181036020830152611f2d818561129e565b9050611f3c60408301846112d7565b94935050505056fea26469706673582212201818b943f6848492f4ca8fbaad00bb4eeacb744ce4ff5640b642edf8dc8e033764736f6c63430008130033",
  "immutableReferences": {},
  "source": "// SPDX-License-Identifier: MIT \npragma solidity 0.8.19;\n\nimport \"./zombiefeeding.sol\";\n\ncontract ZombieHelper is ZombieFeeding {\n\n  uint levelUpFee = 0.001 ether;\n\n  modifier aboveLevel(uint _level, uint _zombieId) {\n    require(zombies[_zombieId].level >= _level);\n    _;\n  }\n\n  function withdraw() external onlyOwner {\n    address payable _owner = payable(owner());\n    _owner.transfer(address(this).balance);\n  }\n\n  function setLevelUpFee(uint _fee) external onlyOwner {\n    levelUpFee = _fee;\n  }\n\n  function levelUp(uint _zombieId) external payable {\n    require(msg.value == levelUpFee);\n    zombies[_zombieId].level++;\n  }\n\n  function changeName(uint _zombieId, string calldata _newName) external aboveLevel(2, _zombieId) onlyOwnerOf(_zombieId) {\n    zombies[_zombieId].name = _newName;\n  }\n\n  function changeDna(uint _zombieId, uint _newDna) external aboveLevel(20, _zombieId) onlyOwnerOf(_zombieId) {\n    zombies[_zombieId].dna = _newDna;\n  }\n\n  function getZombiesByOwner(address _owner) external view returns(uint[] memory) {\n    uint[] memory result = new uint[](ownerZombieCount[_owner]);\n    uint counter = 0;\n    for (uint i = 0; i < zombies.length; i++) {\n      if (zombieToOwner[i] == _owner) {\n        result[counter] = i;\n        counter++;\n      }\n    }\n    return result;\n  }\n\n}\n",
  "sourcePath": "/media/D/Learning/try-solidity/advanced/contracts/zombiehelper.sol",
  "compiler": {
    "name": "solc",
    "version": "0.8.19+commit.7dd6d404.Emscripten.clang"
  },
  "schemaVersion": "3.4.15",
  "updatedAt": "2023-08-09T03:37:30.998Z",
  "devdoc": {
    "kind": "dev",
    "methods": {
      "isOwner()": {
        "returns": {
          "_0": "true if `msg.sender` is the owner of the contract."
        }
      },
      "owner()": {
        "returns": {
          "_0": "the address of the owner."
        }
      },
      "renounceOwnership()": {
        "details": "Allows the current owner to relinquish control of the contract."
      },
      "transferOwnership(address)": {
        "details": "Allows the current owner to transfer control of the contract to a newOwner.",
        "params": {
          "newOwner": "The address to transfer ownership to."
        }
      }
    },
    "version": 1
  },
  "userdoc": {
    "kind": "user",
    "methods": {
      "renounceOwnership()": {
        "notice": "Renouncing to ownership will leave the contract without an owner. It will not be possible to call the functions with the `onlyOwner` modifier anymore."
      }
    },
    "version": 1
  }
}