{
  "contractName": "Lottery",
  "abi": [
    {
      "inputs": [],
      "stateMutability": "nonpayable",
      "type": "constructor"
    },
    {
      "inputs": [],
      "name": "lotteryId",
      "outputs": [
        {
          "internalType": "uint256",
          "name": "",
          "type": "uint256"
        }
      ],
      "stateMutability": "view",
      "type": "function",
      "constant": true
    },
    {
      "inputs": [],
      "name": "owner",
      "outputs": [
        {
          "internalType": "address",
          "name": "",
          "type": "address"
        }
      ],
      "stateMutability": "view",
      "type": "function",
      "constant": true
    },
    {
      "inputs": [
        {
          "internalType": "uint256",
          "name": "",
          "type": "uint256"
        }
      ],
      "name": "players",
      "outputs": [
        {
          "internalType": "address payable",
          "name": "",
          "type": "address"
        }
      ],
      "stateMutability": "view",
      "type": "function",
      "constant": true
    },
    {
      "inputs": [
        {
          "internalType": "uint256",
          "name": "",
          "type": "uint256"
        }
      ],
      "name": "winners",
      "outputs": [
        {
          "internalType": "address",
          "name": "",
          "type": "address"
        }
      ],
      "stateMutability": "view",
      "type": "function",
      "constant": true
    },
    {
      "inputs": [],
      "name": "enter",
      "outputs": [],
      "stateMutability": "payable",
      "type": "function",
      "payable": true
    },
    {
      "inputs": [],
      "name": "getPlayers",
      "outputs": [
        {
          "internalType": "address payable[]",
          "name": "",
          "type": "address[]"
        }
      ],
      "stateMutability": "view",
      "type": "function",
      "constant": true
    },
    {
      "inputs": [],
      "name": "getBalance",
      "outputs": [
        {
          "internalType": "uint256",
          "name": "",
          "type": "uint256"
        }
      ],
      "stateMutability": "view",
      "type": "function",
      "constant": true
    },
    {
      "inputs": [],
      "name": "getLotteryId",
      "outputs": [
        {
          "internalType": "uint256",
          "name": "",
          "type": "uint256"
        }
      ],
      "stateMutability": "view",
      "type": "function",
      "constant": true
    },
    {
      "inputs": [],
      "name": "getRandomNumber",
      "outputs": [
        {
          "internalType": "uint256",
          "name": "",
          "type": "uint256"
        }
      ],
      "stateMutability": "view",
      "type": "function",
      "constant": true
    },
    {
      "inputs": [],
      "name": "pickWinnner",
      "outputs": [],
      "stateMutability": "nonpayable",
      "type": "function"
    },
    {
      "inputs": [],
      "name": "getWinners",
      "outputs": [
        {
          "internalType": "address[]",
          "name": "",
          "type": "address[]"
        }
      ],
      "stateMutability": "view",
      "type": "function",
      "constant": true
    }
  ],
  "bytecode": "0x608060405234801561001057600080fd5b50336000806101000a81548173ffffffffffffffffffffffffffffffffffffffff021916908373ffffffffffffffffffffffffffffffffffffffff1602179055506000600381905550610cb2806100686000396000f3fe60806040526004361061009c5760003560e01c8063dbdff2c111610064578063dbdff2c11461018a578063df15c37e146101b5578063e580f47b146101e0578063e97dcb621461020b578063f71d96cb14610215578063f76893b6146102525761009c565b806312065fe0146100a15780638b5b9ccc146100cc5780638da5cb5b146100f7578063900aafaf14610122578063a2fb11751461014d575b600080fd5b3480156100ad57600080fd5b506100b6610269565b6040516100c391906107e1565b60405180910390f35b3480156100d857600080fd5b506100e1610271565b6040516100ee91906108ec565b60405180910390f35b34801561010357600080fd5b5061010c6102ff565b604051610119919061092f565b60405180910390f35b34801561012e57600080fd5b50610137610323565b60405161014491906107e1565b60405180910390f35b34801561015957600080fd5b50610174600480360381019061016f919061097b565b61032d565b604051610181919061092f565b60405180910390f35b34801561019657600080fd5b5061019f61036c565b6040516101ac91906107e1565b60405180910390f35b3480156101c157600080fd5b506101ca6103c0565b6040516101d79190610a66565b60405180910390f35b3480156101ec57600080fd5b506101f561044e565b60405161020291906107e1565b60405180910390f35b610213610454565b005b34801561022157600080fd5b5061023c6004803603810190610237919061097b565b6104cd565b6040516102499190610a97565b60405180910390f35b34801561025e57600080fd5b5061026761050c565b005b600047905090565b606060018054806020026020016040519081016040528092919081815260200182805480156102f557602002820191906000526020600020905b8160009054906101000a900473ffffffffffffffffffffffffffffffffffffffff1673ffffffffffffffffffffffffffffffffffffffff16815260200190600101908083116102ab575b5050505050905090565b60008054906101000a900473ffffffffffffffffffffffffffffffffffffffff1681565b6000600354905090565b6002818154811061033d57600080fd5b906000526020600020016000915054906101000a900473ffffffffffffffffffffffffffffffffffffffff1681565b60008060009054906101000a900473ffffffffffffffffffffffffffffffffffffffff16426040516020016103a2929190610b1b565b6040516020818303038152906040528051906020012060001c905090565b6060600280548060200260200160405190810160405280929190818152602001828054801561044457602002820191906000526020600020905b8160009054906101000a900473ffffffffffffffffffffffffffffffffffffffff1673ffffffffffffffffffffffffffffffffffffffff16815260200190600101908083116103fa575b5050505050905090565b60035481565b66038d7ea4c6800034101561046857600080fd5b6001339080600181540180825580915050600190039060005260206000200160009091909190916101000a81548173ffffffffffffffffffffffffffffffffffffffff021916908373ffffffffffffffffffffffffffffffffffffffff160217905550565b600181815481106104dd57600080fd5b906000526020600020016000915054906101000a900473ffffffffffffffffffffffffffffffffffffffff1681565b60008054906101000a900473ffffffffffffffffffffffffffffffffffffffff1673ffffffffffffffffffffffffffffffffffffffff163373ffffffffffffffffffffffffffffffffffffffff161461056457600080fd5b600060018054905061057461036c565b61057e9190610b76565b90506001818154811061059457610593610ba7565b5b9060005260206000200160009054906101000a900473ffffffffffffffffffffffffffffffffffffffff1673ffffffffffffffffffffffffffffffffffffffff166108fc479081150290604051600060405180830381858888f19350505050158015610604573d6000803e3d6000fd5b5060026001828154811061061b5761061a610ba7565b5b9060005260206000200160009054906101000a900473ffffffffffffffffffffffffffffffffffffffff169080600181540180825580915050600190039060005260206000200160009091909190916101000a81548173ffffffffffffffffffffffffffffffffffffffff021916908373ffffffffffffffffffffffffffffffffffffffff160217905550600360008154809291906106b990610c05565b9190505550600067ffffffffffffffff8111156106d9576106d8610c4d565b5b6040519080825280602002602001820160405280156107075781602001602082028036833780820191505090505b506001908051906020019061071d929190610721565b5050565b82805482825590600052602060002090810192821561079a579160200282015b828111156107995782518260006101000a81548173ffffffffffffffffffffffffffffffffffffffff021916908373ffffffffffffffffffffffffffffffffffffffff16021790555091602001919060010190610741565b5b5090506107a791906107ab565b5090565b5b808211156107c45760008160009055506001016107ac565b5090565b6000819050919050565b6107db816107c8565b82525050565b60006020820190506107f660008301846107d2565b92915050565b600081519050919050565b600082825260208201905092915050565b6000819050602082019050919050565b600073ffffffffffffffffffffffffffffffffffffffff82169050919050565b600061085382610828565b9050919050565b61086381610848565b82525050565b6000610875838361085a565b60208301905092915050565b6000602082019050919050565b6000610899826107fc565b6108a38185610807565b93506108ae83610818565b8060005b838110156108df5781516108c68882610869565b97506108d183610881565b9250506001810190506108b2565b5085935050505092915050565b60006020820190508181036000830152610906818461088e565b905092915050565b600061091982610828565b9050919050565b6109298161090e565b82525050565b60006020820190506109446000830184610920565b92915050565b600080fd5b610958816107c8565b811461096357600080fd5b50565b6000813590506109758161094f565b92915050565b6000602082840312156109915761099061094a565b5b600061099f84828501610966565b91505092915050565b600081519050919050565b600082825260208201905092915050565b6000819050602082019050919050565b6109dd8161090e565b82525050565b60006109ef83836109d4565b60208301905092915050565b6000602082019050919050565b6000610a13826109a8565b610a1d81856109b3565b9350610a28836109c4565b8060005b83811015610a59578151610a4088826109e3565b9750610a4b836109fb565b925050600181019050610a2c565b5085935050505092915050565b60006020820190508181036000830152610a808184610a08565b905092915050565b610a9181610848565b82525050565b6000602082019050610aac6000830184610a88565b92915050565b60008160601b9050919050565b6000610aca82610ab2565b9050919050565b6000610adc82610abf565b9050919050565b610af4610aef8261090e565b610ad1565b82525050565b6000819050919050565b610b15610b10826107c8565b610afa565b82525050565b6000610b278285610ae3565b601482019150610b378284610b04565b6020820191508190509392505050565b7f4e487b7100000000000000000000000000000000000000000000000000000000600052601260045260246000fd5b6000610b81826107c8565b9150610b8c836107c8565b925082610b9c57610b9b610b47565b5b828206905092915050565b7f4e487b7100000000000000000000000000000000000000000000000000000000600052603260045260246000fd5b7f4e487b7100000000000000000000000000000000000000000000000000000000600052601160045260246000fd5b6000610c10826107c8565b91507fffffffffffffffffffffffffffffffffffffffffffffffffffffffffffffffff8203610c4257610c41610bd6565b5b600182019050919050565b7f4e487b7100000000000000000000000000000000000000000000000000000000600052604160045260246000fdfea26469706673582212205bb0ba371fb42c2bf270ac384f4e2515c4d66a81f4abf7fd2f6ef2aee85cdcc964736f6c634300080f0033",
  "immutableReferences": {},
  "source": "// SPDX-License-Identifier: MIT\npragma solidity ^0.8.15;\n\ncontract Lottery {\n    // State/Storage\n    address public owner;\n    address payable[] public players;\n    address[] public winners;\n    uint public lotteryId;\n\n    constructor() {\n        owner = msg.sender;\n        lotteryId = 0;\n    }\n\n    modifier onlyOwner {\n        require(msg.sender == owner);\n        _;\n    }\n\n    function enter() public payable {\n        require(msg.value >= 0.001 ether);\n        players.push(payable(msg.sender));\n    }\n\n    function getPlayers() public view returns (address payable[] memory) {\n        return players;\n    }\n\n    function getBalance() public view returns (uint) {\n        return address(this).balance;\n    }\n\n    function getLotteryId() public view returns (uint) {\n        return lotteryId;\n    }\n    \n    function getRandomNumber() public view returns (uint) {\n        return uint(keccak256(abi.encodePacked(owner, block.timestamp)));\n    }\n\n    function pickWinnner() public onlyOwner {\n        uint randomIndex = getRandomNumber() % players.length;\n        players[randomIndex].transfer(address(this).balance);\n        winners.push(players[randomIndex]);\n        lotteryId++;\n        players = new address payable[](0);\n    }\n\n    function getWinners() public view returns(address[] memory) {\n        return winners;\n    }\n}\n",
  "sourcePath": "/media/D/Learning/try-solidity/lottery/backend/contracts/Lottery.sol",
  "compiler": {
    "name": "solc",
    "version": "0.8.15+commit.e14f2714.Emscripten.clang"
  },
  "schemaVersion": "3.4.15",
  "updatedAt": "2023-08-09T14:10:31.662Z",
  "networkType": "ethereum",
  "devdoc": {
    "kind": "dev",
    "methods": {},
    "version": 1
  },
  "userdoc": {
    "kind": "user",
    "methods": {},
    "version": 1
  }
}